{
  "contractName": "MFI",
  "abi": [
    {
      "constant": true,
      "inputs": [],
      "name": "owner",
      "outputs": [
        {
          "name": "",
          "type": "address"
        }
      ],
      "payable": false,
      "stateMutability": "view",
      "type": "function"
    },
    {
      "inputs": [],
      "payable": false,
      "stateMutability": "nonpayable",
      "type": "constructor"
    },
    {
      "payable": true,
      "stateMutability": "payable",
      "type": "fallback"
    },
    {
      "anonymous": false,
      "inputs": [
        {
          "indexed": true,
          "name": "from",
          "type": "address"
        },
        {
          "indexed": true,
          "name": "to",
          "type": "address"
        },
        {
          "indexed": false,
          "name": "value",
          "type": "uint256"
        }
      ],
      "name": "Transfer",
      "type": "event"
    },
    {
      "anonymous": false,
      "inputs": [
        {
          "indexed": true,
          "name": "owner",
          "type": "address"
        },
        {
          "indexed": true,
          "name": "spender",
          "type": "address"
        },
        {
          "indexed": false,
          "name": "value",
          "type": "uint256"
        }
      ],
      "name": "Approval",
      "type": "event"
    },
    {
      "constant": true,
      "inputs": [],
      "name": "sender",
      "outputs": [
        {
          "name": "",
          "type": "address"
        }
      ],
      "payable": false,
      "stateMutability": "view",
      "type": "function"
    },
    {
      "constant": true,
      "inputs": [],
      "name": "contractAddress",
      "outputs": [
        {
          "name": "",
          "type": "address"
        }
      ],
      "payable": false,
      "stateMutability": "view",
      "type": "function"
    },
    {
      "constant": true,
      "inputs": [
        {
          "name": "_owner",
          "type": "address"
        }
      ],
      "name": "balanceOf",
      "outputs": [
        {
          "name": "balance",
          "type": "uint256"
        }
      ],
      "payable": false,
      "stateMutability": "view",
      "type": "function"
    },
    {
      "constant": true,
      "inputs": [
        {
          "name": "_owner",
          "type": "address"
        }
      ],
      "name": "borrowerBalance",
      "outputs": [
        {
          "name": "balance",
          "type": "uint256"
        }
      ],
      "payable": false,
      "stateMutability": "view",
      "type": "function"
    },
    {
      "constant": false,
      "inputs": [
        {
          "name": "_to",
          "type": "address"
        },
        {
          "name": "_value",
          "type": "uint256"
        }
      ],
      "name": "deposit",
      "outputs": [
        {
          "name": "",
          "type": "bool"
        }
      ],
      "payable": true,
      "stateMutability": "payable",
      "type": "function"
    },
    {
      "constant": true,
      "inputs": [],
      "name": "fundsAvailable",
      "outputs": [
        {
          "name": "",
          "type": "uint256"
        }
      ],
      "payable": false,
      "stateMutability": "view",
      "type": "function"
    },
    {
      "constant": false,
      "inputs": [
        {
          "name": "_from",
          "type": "address"
        },
        {
          "name": "_value",
          "type": "uint256"
        }
      ],
      "name": "borrow",
      "outputs": [
        {
          "name": "",
          "type": "bool"
        }
      ],
      "payable": true,
      "stateMutability": "payable",
      "type": "function"
    },
    {
      "constant": false,
      "inputs": [
        {
          "name": "_to",
          "type": "address"
        },
        {
          "name": "_value",
          "type": "uint256"
        }
      ],
      "name": "approve",
      "outputs": [
        {
          "name": "",
          "type": "bool"
        }
      ],
      "payable": false,
      "stateMutability": "nonpayable",
      "type": "function"
    },
    {
      "constant": false,
      "inputs": [
        {
          "name": "_to",
          "type": "address"
        },
        {
          "name": "_amount",
          "type": "uint256"
        }
      ],
      "name": "paybackToDepositer",
      "outputs": [
        {
          "name": "",
          "type": "bool"
        }
      ],
      "payable": true,
      "stateMutability": "payable",
      "type": "function"
    },
    {
      "constant": false,
      "inputs": [
        {
          "name": "_to",
          "type": "address"
        },
        {
          "name": "_amount",
          "type": "uint256"
        }
      ],
      "name": "paybackToOwner",
      "outputs": [
        {
          "name": "",
          "type": "bool"
        }
      ],
      "payable": true,
      "stateMutability": "payable",
      "type": "function"
    }
  ],
  "bytecode": "0x60606040526000600355601e6004556014600555341561001e57600080fd5b33600660006101000a81548173ffffffffffffffffffffffffffffffffffffffff021916908373ffffffffffffffffffffffffffffffffffffffff1602179055506000600381905550610bfb806100766000396000f3006060604052600436106100af576000357c0100000000000000000000000000000000000000000000000000000000900463ffffffff168063095ea7b3146100b157806347e7ef241461010b5780634b8a35291461015a5780634ec06982146101a95780634fe0bd1e146101f857806367e404ce1461022157806370a08231146102765780638da5cb5b146102c3578063a1aeb1c214610318578063ba5eceb614610367578063f6b4dfb4146103b4575b005b34156100bc57600080fd5b6100f1600480803573ffffffffffffffffffffffffffffffffffffffff16906020019091908035906020019091905050610409565b604051808215151515815260200191505060405180910390f35b610140600480803573ffffffffffffffffffffffffffffffffffffffff16906020019091908035906020019091905050610501565b604051808215151515815260200191505060405180910390f35b61018f600480803573ffffffffffffffffffffffffffffffffffffffff16906020019091908035906020019091905050610639565b604051808215151515815260200191505060405180910390f35b6101de600480803573ffffffffffffffffffffffffffffffffffffffff16906020019091908035906020019091905050610736565b604051808215151515815260200191505060405180910390f35b341561020357600080fd5b61020b61090f565b6040518082815260200191505060405180910390f35b341561022c57600080fd5b610234610919565b604051808273ffffffffffffffffffffffffffffffffffffffff1673ffffffffffffffffffffffffffffffffffffffff16815260200191505060405180910390f35b341561028157600080fd5b6102ad600480803573ffffffffffffffffffffffffffffffffffffffff16906020019091905050610921565b6040518082815260200191505060405180910390f35b34156102ce57600080fd5b6102d661096a565b604051808273ffffffffffffffffffffffffffffffffffffffff1673ffffffffffffffffffffffffffffffffffffffff16815260200191505060405180910390f35b61034d600480803573ffffffffffffffffffffffffffffffffffffffff16906020019091908035906020019091905050610990565b604051808215151515815260200191505060405180910390f35b341561037257600080fd5b61039e600480803573ffffffffffffffffffffffffffffffffffffffff16906020019091905050610b47565b6040518082815260200191505060405180910390f35b34156103bf57600080fd5b6103c7610b90565b604051808273ffffffffffffffffffffffffffffffffffffffff1673ffffffffffffffffffffffffffffffffffffffff16815260200191505060405180910390f35b60008273ffffffffffffffffffffffffffffffffffffffff163373ffffffffffffffffffffffffffffffffffffffff167f8c5be1e5ebec7d5bd14f71427d1e84f3dd0314c0f7b2291e5b200ac8c7c3b925846040518082815260200191505060405180910390a38273ffffffffffffffffffffffffffffffffffffffff16600660009054906101000a900473ffffffffffffffffffffffffffffffffffffffff1673ffffffffffffffffffffffffffffffffffffffff167fddf252ad1be2c89b69c2b068fc378daa952ba7f163c4a11628f55a4df523b3ef846040518082815260200191505060405180910390a36001905092915050565b600061055582600160008673ffffffffffffffffffffffffffffffffffffffff1673ffffffffffffffffffffffffffffffffffffffff16815260200190815260200160002054610b9890919063ffffffff16565b600160008573ffffffffffffffffffffffffffffffffffffffff1673ffffffffffffffffffffffffffffffffffffffff1681526020019081526020016000208190555081600360008282540192505081905550600660009054906101000a900473ffffffffffffffffffffffffffffffffffffffff1673ffffffffffffffffffffffffffffffffffffffff163373ffffffffffffffffffffffffffffffffffffffff167fddf252ad1be2c89b69c2b068fc378daa952ba7f163c4a11628f55a4df523b3ef846040518082815260200191505060405180910390a36001905092915050565b60008073ffffffffffffffffffffffffffffffffffffffff168373ffffffffffffffffffffffffffffffffffffffff161415151561067657600080fd5b600354821115151561068757600080fd5b6106d982600260003373ffffffffffffffffffffffffffffffffffffffff1673ffffffffffffffffffffffffffffffffffffffff16815260200190815260200160002054610b9890919063ffffffff16565b600260003373ffffffffffffffffffffffffffffffffffffffff1673ffffffffffffffffffffffffffffffffffffffff16815260200190815260200160002081905550816003600082825403925050819055506001905092915050565b600080600073ffffffffffffffffffffffffffffffffffffffff168473ffffffffffffffffffffffffffffffffffffffff161415151561077557600080fd5b600160008573ffffffffffffffffffffffffffffffffffffffff1673ffffffffffffffffffffffffffffffffffffffff1681526020019081526020016000205483111515156107c357600080fd5b606460055484028115156107d357fe5b04830190508060036000828254039250508190555061083a83600160008773ffffffffffffffffffffffffffffffffffffffff1673ffffffffffffffffffffffffffffffffffffffff16815260200190815260200160002054610bb690919063ffffffff16565b600160008673ffffffffffffffffffffffffffffffffffffffff1673ffffffffffffffffffffffffffffffffffffffff168152602001908152602001600020819055508373ffffffffffffffffffffffffffffffffffffffff16600660009054906101000a900473ffffffffffffffffffffffffffffffffffffffff1673ffffffffffffffffffffffffffffffffffffffff167fddf252ad1be2c89b69c2b068fc378daa952ba7f163c4a11628f55a4df523b3ef836040518082815260200191505060405180910390a3600191505092915050565b6000600354905090565b600033905090565b6000600160008373ffffffffffffffffffffffffffffffffffffffff1673ffffffffffffffffffffffffffffffffffffffff168152602001908152602001600020549050919050565b600660009054906101000a900473ffffffffffffffffffffffffffffffffffffffff1681565b600080600073ffffffffffffffffffffffffffffffffffffffff168473ffffffffffffffffffffffffffffffffffffffff16141515156109cf57600080fd5b600260003373ffffffffffffffffffffffffffffffffffffffff1673ffffffffffffffffffffffffffffffffffffffff168152602001908152602001600020548311151515610a1d57600080fd5b610a6f83600260003373ffffffffffffffffffffffffffffffffffffffff1673ffffffffffffffffffffffffffffffffffffffff16815260200190815260200160002054610bb690919063ffffffff16565b600260003373ffffffffffffffffffffffffffffffffffffffff1673ffffffffffffffffffffffffffffffffffffffff1681526020019081526020016000208190555060646004548402811515610ac257fe5b0483019050806003600082825401925050819055508373ffffffffffffffffffffffffffffffffffffffff163373ffffffffffffffffffffffffffffffffffffffff167fddf252ad1be2c89b69c2b068fc378daa952ba7f163c4a11628f55a4df523b3ef836040518082815260200191505060405180910390a3600191505092915050565b6000600260008373ffffffffffffffffffffffffffffffffffffffff1673ffffffffffffffffffffffffffffffffffffffff168152602001908152602001600020549050919050565b600030905090565b6000808284019050838110151515610bac57fe5b8091505092915050565b6000828211151515610bc457fe5b8183039050929150505600a165627a7a7230582044362d2f39ebeef6538ead203ebe7d87a6b9d138cf9d36fa57c33962b6f0c7780029",
  "source": "pragma solidity ^0.4.19;\r\nimport \"./SafeMath.sol\";\r\n\r\ncontract MFI {\r\n    mapping (address => mapping (address => uint256)) internal allowed;\r\n\r\n    using SafeMath for uint256;\r\n\r\n    mapping(address => uint256) deposits;\r\n    mapping(address => uint256) borrowings;\r\n    uint256 totalFund = 0;\r\n    \r\n    uint256 intRate = 30;\r\n    uint256 depIntRate = 20;\r\n    \r\n    address public owner;\r\n    \r\n    event Transfer(address indexed from, address indexed to, uint256 value);\r\n    event Approval(address indexed owner, address indexed spender, uint256 value);\r\n\r\n    function MFI() public {\r\n        owner = msg.sender;\r\n        totalFund = 0;\r\n    }\r\n    \r\n    function() public payable { }\r\n\r\n    function sender() view public returns (address) {\r\n        return msg.sender;\r\n    }\r\n    //MFI.deployed().then(function(f) {f.contractAddress().then(function(f) {console.log(f.toString())})})\r\n    function contractAddress() public view returns (address) {\r\n        return this;\r\n    }\r\n    function balanceOf(address _owner) public view returns (uint256 balance) {\r\n        return deposits[_owner];\r\n    }\r\n\r\n    function borrowerBalance(address _owner) public view returns (uint256 balance) {\r\n        return borrowings[_owner];\r\n    }\r\n\r\n    //MFI.deployed().then(function(f) {f.deposit('0xcf3d4964a9119c98729de14015c463700d9c5f79',10000).then(function(f) {console.log(f.toString())})})\r\n    function deposit(address _to, uint256 _value) payable public returns (bool) {\r\n        //require(_to != address(0));\r\n        deposits[_to] = deposits[_to].add(_value);\r\n\r\n        totalFund += _value;\r\n        Transfer(msg.sender, owner, _value);\r\n\r\n        return true;\r\n    }\r\n    //MFI.deployed().then(function(f) {f.fundsAvailable().then(function(f) {console.log(f.toString())})})\r\n    function fundsAvailable() view public returns (uint256) {\r\n        return totalFund;\r\n    }\r\n    function borrow(address _from, uint256 _value) payable public returns (bool) {\r\n        require(_from != address(0));\r\n        require(_value <= totalFund);\r\n        borrowings[msg.sender] = borrowings[msg.sender].add(_value);\r\n        totalFund -= _value;\r\n        \r\n        return true;\r\n    }\r\n    \r\n    function approve(address _to, uint256 _value) public returns (bool) {\r\n        //allowed[msg.sender][_spender] = _value;\r\n        Approval(msg.sender, _to, _value);\r\n        Transfer(owner, _to, _value);\r\n        return true;\r\n    }\r\n/*\r\n    function allowance(address _owner, address _spender) public view returns (uint256) {\r\n        return allowed[_owner][_spender];\r\n    }\r\n*/\r\n    function paybackToDepositer(address _to, uint256 _amount) payable public returns (bool) {\r\n        require(_to != address(0));\r\n        require(_amount <= deposits[_to]);\r\n        uint256 toPay;\r\n        toPay = _amount + ( _amount * depIntRate / 100);\r\n        totalFund -= toPay;\r\n\r\n        deposits[_to] = deposits[_to].sub(_amount);\r\n        Transfer(owner, _to, toPay);\r\n\r\n        return true;\r\n    }\r\n    \r\n    function paybackToOwner(address _to, uint256 _amount) payable public returns (bool) {\r\n        require(_to != address(0));\r\n        require(_amount <= borrowings[msg.sender]);\r\n        \r\n        borrowings[msg.sender] = borrowings[msg.sender].sub(_amount);\r\n        uint256 toPay;\r\n        toPay = _amount + ( _amount * intRate / 100);\r\n        totalFund += toPay;\r\n        Transfer(msg.sender, _to, toPay);\r\n        \r\n        return true;\r\n    }\r\n}",
  "sourcePath": "E:\\jini\\projects\\misc\\microfinance2\\contracts\\MFI.sol",
  "compiler": {
    "name": "solc",
    "version": "0.4.19+commit.c4cbbb05.Emscripten.clang"
  },
  "schemaVersion": "2.0.0",
  "updatedAt": "2018-03-28T05:12:20.972Z"
}