{
  "contractName": "MFI",
  "abi": [
    {
      "constant": true,
      "inputs": [],
      "name": "owner",
      "outputs": [
        {
          "name": "",
          "type": "address"
        }
      ],
      "payable": false,
      "stateMutability": "view",
      "type": "function"
    },
    {
      "inputs": [],
      "payable": false,
      "stateMutability": "nonpayable",
      "type": "constructor"
    },
    {
      "payable": true,
      "stateMutability": "payable",
      "type": "fallback"
    },
    {
      "anonymous": false,
      "inputs": [
        {
          "indexed": true,
          "name": "from",
          "type": "address"
        },
        {
          "indexed": true,
          "name": "to",
          "type": "address"
        },
        {
          "indexed": false,
          "name": "value",
          "type": "uint256"
        }
      ],
      "name": "Transfer",
      "type": "event"
    },
    {
      "anonymous": false,
      "inputs": [
        {
          "indexed": true,
          "name": "owner",
          "type": "address"
        },
        {
          "indexed": true,
          "name": "spender",
          "type": "address"
        },
        {
          "indexed": false,
          "name": "value",
          "type": "uint256"
        }
      ],
      "name": "Approval",
      "type": "event"
    },
    {
      "constant": true,
      "inputs": [],
      "name": "sender",
      "outputs": [
        {
          "name": "",
          "type": "address"
        }
      ],
      "payable": false,
      "stateMutability": "view",
      "type": "function"
    },
    {
      "constant": true,
      "inputs": [],
      "name": "contractAddress",
      "outputs": [
        {
          "name": "",
          "type": "address"
        }
      ],
      "payable": false,
      "stateMutability": "view",
      "type": "function"
    },
    {
      "constant": true,
      "inputs": [
        {
          "name": "_owner",
          "type": "address"
        }
      ],
      "name": "balanceOf",
      "outputs": [
        {
          "name": "balance",
          "type": "uint256"
        }
      ],
      "payable": false,
      "stateMutability": "view",
      "type": "function"
    },
    {
      "constant": true,
      "inputs": [
        {
          "name": "_owner",
          "type": "address"
        }
      ],
      "name": "borrowerBalance",
      "outputs": [
        {
          "name": "balance",
          "type": "uint256"
        }
      ],
      "payable": false,
      "stateMutability": "view",
      "type": "function"
    },
    {
      "constant": false,
      "inputs": [
        {
          "name": "_to",
          "type": "address"
        },
        {
          "name": "_value",
          "type": "uint256"
        }
      ],
      "name": "deposit",
      "outputs": [
        {
          "name": "",
          "type": "bool"
        }
      ],
      "payable": true,
      "stateMutability": "payable",
      "type": "function"
    },
    {
      "constant": true,
      "inputs": [],
      "name": "fundsAvailable",
      "outputs": [
        {
          "name": "",
          "type": "uint256"
        }
      ],
      "payable": false,
      "stateMutability": "view",
      "type": "function"
    },
    {
      "constant": false,
      "inputs": [
        {
          "name": "_from",
          "type": "address"
        },
        {
          "name": "_value",
          "type": "uint256"
        }
      ],
      "name": "borrow",
      "outputs": [
        {
          "name": "",
          "type": "bool"
        }
      ],
      "payable": true,
      "stateMutability": "payable",
      "type": "function"
    },
    {
      "constant": false,
      "inputs": [
        {
          "name": "_to",
          "type": "address"
        },
        {
          "name": "_value",
          "type": "uint256"
        }
      ],
      "name": "approve",
      "outputs": [
        {
          "name": "",
          "type": "bool"
        }
      ],
      "payable": false,
      "stateMutability": "nonpayable",
      "type": "function"
    },
    {
      "constant": false,
      "inputs": [
        {
          "name": "_to",
          "type": "address"
        },
        {
          "name": "_amount",
          "type": "uint256"
        }
      ],
      "name": "paybackToDepositer",
      "outputs": [
        {
          "name": "",
          "type": "bool"
        }
      ],
      "payable": true,
      "stateMutability": "payable",
      "type": "function"
    },
    {
      "constant": false,
      "inputs": [
        {
          "name": "_to",
          "type": "address"
        },
        {
          "name": "_amount",
          "type": "uint256"
        }
      ],
      "name": "paybackToOwner",
      "outputs": [
        {
          "name": "",
          "type": "bool"
        }
      ],
      "payable": true,
      "stateMutability": "payable",
      "type": "function"
    }
  ],
  "bytecode": "0x60606040526000600355601e6004556014600555341561001e57600080fd5b60068054600160a060020a033316600160a060020a031990911617905560006003556105de8061004f6000396000f3006060604052600436106100ae5763ffffffff7c0100000000000000000000000000000000000000000000000000000000600035041663095ea7b381146100b057806347e7ef24146100e65780634b8a3529146100fd5780634ec06982146101145780634fe0bd1e1461012b57806367e404ce1461015057806370a082311461017f5780638da5cb5b1461019e578063a1aeb1c2146101b1578063ba5eceb6146101c8578063f6b4dfb4146101e7575b005b34156100bb57600080fd5b6100d2600160a060020a03600435166024356101fa565b604051901515815260200160405180910390f35b6100d2600160a060020a036004351660243561027d565b6100d2600160a060020a0360043516602435610302565b6100d2600160a060020a036004351660243561037b565b341561013657600080fd5b61013e610446565b60405190815260200160405180910390f35b341561015b57600080fd5b61016361044c565b604051600160a060020a03909116815260200160405180910390f35b341561018a57600080fd5b61013e600160a060020a0360043516610450565b34156101a957600080fd5b61016361046b565b6100d2600160a060020a036004351660243561047a565b34156101d357600080fd5b61013e600160a060020a036004351661054b565b34156101f257600080fd5b610163610566565b600082600160a060020a031633600160a060020a03167f8c5be1e5ebec7d5bd14f71427d1e84f3dd0314c0f7b2291e5b200ac8c7c3b9258460405190815260200160405180910390a3600654600160a060020a0380851691166000805160206105938339815191528460405190815260200160405180910390a350600192915050565b600160a060020a0382166000908152600160205260408120546102a6908363ffffffff61056a16565b600160a060020a038085166000908152600160205260409081902092909255600380548501905560065481169133909116906000805160206105938339815191529085905190815260200160405180910390a350600192915050565b6000600160a060020a038316151561031957600080fd5b60035482111561032857600080fd5b600160a060020a033316600090815260026020526040902054610351908363ffffffff61056a16565b33600160a060020a0316600090815260026020526040902055506003805491909103905550600190565b600080600160a060020a038416151561039357600080fd5b600160a060020a0384166000908152600160205260409020548311156103b857600080fd5b50600554600380546064928502929092048401918290039055600160a060020a0384166000908152600160205260409020546103f49084610580565b600160a060020a03808616600081815260016020526040908190209390935560065490929116906000805160206105938339815191529084905190815260200160405180910390a35060019392505050565b60035490565b3390565b600160a060020a031660009081526001602052604090205490565b600654600160a060020a031681565b600080600160a060020a038416151561049257600080fd5b600160a060020a0333166000908152600260205260409020548311156104b757600080fd5b600160a060020a0333166000908152600260205260409020546104e0908463ffffffff61058016565b600160a060020a03331660009081526002602052604090205560045460649084026003805492909104850191820190559050600160a060020a038085169033166000805160206105938339815191528360405190815260200160405180910390a35060019392505050565b600160a060020a031660009081526002602052604090205490565b3090565b60008282018381101561057957fe5b9392505050565b60008282111561058c57fe5b509003905600ddf252ad1be2c89b69c2b068fc378daa952ba7f163c4a11628f55a4df523b3efa165627a7a723058203339b577bea13fa37c384f300e447541400e2b4de6c6111523f957e842e932800029",
  "source": "pragma solidity ^0.4.17;\r\nimport \"./SafeMath.sol\";\r\n\r\ncontract MFI {\r\n    mapping (address => mapping (address => uint256)) internal allowed;\r\n\r\n    using SafeMath for uint256;\r\n\r\n    mapping(address => uint256) deposits;\r\n    mapping(address => uint256) borrowings;\r\n    uint256 totalFund = 0;\r\n\r\n    uint256 intRate = 30;\r\n    uint256 depIntRate = 20;\r\n\r\n    address public owner;\r\n\r\n    event Transfer(address indexed from, address indexed to, uint256 value);\r\n    event Approval(address indexed owner, address indexed spender, uint256 value);\r\n\r\n    function MFI() public {\r\n        owner = msg.sender;\r\n        totalFund = 0;\r\n    }\r\n\r\n    function() public payable { }\r\n\r\n    function sender() view public returns (address) {\r\n        return msg.sender;\r\n    }\r\n    //MFI.deployed().then(function(f) {f.contractAddress().then(function(f) {console.log(f.toString())})})\r\n    function contractAddress() public view returns (address) {\r\n        return this;\r\n    }\r\n    function balanceOf(address _owner) public view returns (uint256 balance) {\r\n        return deposits[_owner];\r\n    }\r\n\r\n    function borrowerBalance(address _owner) public view returns (uint256 balance) {\r\n        return borrowings[_owner];\r\n    }\r\n\r\n    //MFI.deployed().then(function(f) {f.deposit('0xcf3d4964a9119c98729de14015c463700d9c5f79',10000).then(function(f) {console.log(f.toString())})})\r\n    function deposit(address _to, uint256 _value) payable public returns (bool) {\r\n        //require(_to != address(0));\r\n        deposits[_to] = deposits[_to].add(_value);\r\n\r\n        totalFund += _value;\r\n        emit Transfer(msg.sender, owner, _value);\r\n\r\n        return true;\r\n    }\r\n    //MFI.deployed().then(function(f) {f.fundsAvailable().then(function(f) {console.log(f.toString())})})\r\n    function fundsAvailable() view public returns (uint256) {\r\n        return totalFund;\r\n    }\r\n    function borrow(address _from, uint256 _value) payable public returns (bool) {\r\n        require(_from != address(0));\r\n        require(_value <= totalFund);\r\n        borrowings[msg.sender] = borrowings[msg.sender].add(_value);\r\n        totalFund -= _value;\r\n\r\n        return true;\r\n    }\r\n\r\n    function approve(address _to, uint256 _value) public returns (bool) {\r\n        //allowed[msg.sender][_spender] = _value;\r\n        emit Approval(msg.sender, _to, _value);\r\n        emit Transfer(owner, _to, _value);\r\n        return true;\r\n    }\r\n/*\r\n    function allowance(address _owner, address _spender) public view returns (uint256) {\r\n        return allowed[_owner][_spender];\r\n    }\r\n*/\r\n    function paybackToDepositer(address _to, uint256 _amount) payable public returns (bool) {\r\n        require(_to != address(0));\r\n        require(_amount <= deposits[_to]);\r\n        uint256 toPay;\r\n        toPay = _amount + ( _amount * depIntRate / 100);\r\n        totalFund -= toPay;\r\n\r\n        deposits[_to] = deposits[_to].sub(_amount);\r\n        emit Transfer(owner, _to, toPay);\r\n\r\n        return true;\r\n    }\r\n\r\n    function paybackToOwner(address _to, uint256 _amount) payable public returns (bool) {\r\n        require(_to != address(0));\r\n        require(_amount <= borrowings[msg.sender]);\r\n\r\n        borrowings[msg.sender] = borrowings[msg.sender].sub(_amount);\r\n        uint256 toPay;\r\n        toPay = _amount + ( _amount * intRate / 100);\r\n        totalFund += toPay;\r\n        emit Transfer(msg.sender, _to, toPay);\r\n\r\n        return true;\r\n    }\r\n}\r\n",
  "sourcePath": "/home/rails/Microfinance_PoC_Dapp/contracts/MFI.sol",
  "compiler": {
    "name": "solc",
    "version": "0.4.21+commit.dfe3193c.Emscripten.clang"
  },
  "schemaVersion": "2.0.0",
  "updatedAt": "2018-06-09T10:41:05.005Z"
}